{
  "contractName": "Addition",
  "abi": [
    {
      "inputs": [],
      "name": "result",
      "outputs": [
        {
          "internalType": "uint256",
          "name": "",
          "type": "uint256"
        }
      ],
      "stateMutability": "view",
      "type": "function"
    },
    {
      "inputs": [
        {
          "internalType": "uint256",
          "name": "x",
          "type": "uint256"
        }
      ],
      "name": "calculate",
      "outputs": [
        {
          "internalType": "uint256",
          "name": "",
          "type": "uint256"
        }
      ],
      "stateMutability": "nonpayable",
      "type": "function"
    }
  ],
  "bytecode": "0x608060405234801561001057600080fd5b50610243806100206000396000f3fe608060405234801561001057600080fd5b50600436106100365760003560e01c8063653721471461003b578063b9d92de814610059575b600080fd5b610043610089565b60405161005091906100e0565b60405180910390f35b610073600480360381019061006e919061012c565b61008f565b60405161008091906100e0565b60405180910390f35b60005481565b600080826000546100a09190610188565b90506000548110156100b5576100b46101de565b5b80600081905550600054915050919050565b6000819050919050565b6100da816100c7565b82525050565b60006020820190506100f560008301846100d1565b92915050565b600080fd5b610109816100c7565b811461011457600080fd5b50565b60008135905061012681610100565b92915050565b600060208284031215610142576101416100fb565b5b600061015084828501610117565b91505092915050565b7f4e487b7100000000000000000000000000000000000000000000000000000000600052601160045260246000fd5b6000610193826100c7565b915061019e836100c7565b9250827fffffffffffffffffffffffffffffffffffffffffffffffffffffffffffffffff038211156101d3576101d2610159565b5b828201905092915050565b7f4e487b7100000000000000000000000000000000000000000000000000000000600052600160045260246000fdfea2646970667358221220fb8f3fb827921bfcd862cd026736bc699679b07d0599c8e364ae449cc746aff564736f6c634300080a0033",
  "immutableReferences": {},
  "source": "// SPDX-License-Identifier: MIT\npragma solidity ^0.8.10;\n\ncontract ResultStorage\n{\n\tuint public result;\n}\n\ncontract Calculator is ResultStorage\n{\n\tProduct internal product;\n\tAddition internal addition;\n\n\tconstructor()\n\t{\n\t\tproduct=new Product();\n\t\taddition=new Addition();\n\t}\n\tfunction add(uint x) public \n\t{\n\t\tbytes4 methodID=Addition.calculate.selector;\n\t\t(bool success, bytes memory c)=address(addition).delegatecall(abi.encode(methodID,x));\n\t\trequire(success);\n\t}\n\tfunction multiple(uint x) public\n\t{\n\t\tbytes4 methodID=Product.calculate.selector;\n\t\t(bool success, bytes memory c)=address(product).delegatecall(abi.encode(methodID,x));\n\t\trequire(success);\n\t}\n}\n\ncontract Addition is ResultStorage\n{\n\tfunction calculate(uint x) public returns(uint)\n\t{\n\t\tuint temp=result+x;\n\t\tassert(temp>=result);\n\t\tresult=temp;\n\t\treturn result;\n\t}\n}\n\ncontract Product is ResultStorage\n{\n\tfunction calculate(uint x) public returns(uint)\n\t{\n\t\tif(x==0)result=0;\n\t\telse\n\t\t{\n\t\t\tuint temp=result*x;\n\t\t\tassert(temp/result==x);\n\t\t\tresult=temp;\n\t\t}\n\t\treturn result;\n\t}\n}\n\n\n",
  "sourcePath": "/home/surya/Truffle/contracts/Calculator.sol",
  "compiler": {
    "name": "solc",
    "version": "0.8.10+commit.fc410830.Emscripten.clang"
  },
  "schemaVersion": "3.4.4",
  "updatedAt": "2022-01-17T10:48:01.914Z",
  "devdoc": {
    "kind": "dev",
    "methods": {},
    "version": 1
  },
  "userdoc": {
    "kind": "user",
    "methods": {},
    "version": 1
  }
}