{
  "contractName": "Calculator",
  "abi": [
    {
      "inputs": [],
      "stateMutability": "nonpayable",
      "type": "constructor"
    },
    {
      "inputs": [],
      "name": "result",
      "outputs": [
        {
          "internalType": "uint256",
          "name": "",
          "type": "uint256"
        }
      ],
      "stateMutability": "view",
      "type": "function"
    },
    {
      "inputs": [
        {
          "internalType": "uint256",
          "name": "x",
          "type": "uint256"
        }
      ],
      "name": "add",
      "outputs": [],
      "stateMutability": "nonpayable",
      "type": "function"
    },
    {
      "inputs": [
        {
          "internalType": "uint256",
          "name": "x",
          "type": "uint256"
        }
      ],
      "name": "multiple",
      "outputs": [],
      "stateMutability": "nonpayable",
      "type": "function"
    }
  ],
  "bytecode": "0x608060405234801561001057600080fd5b5060405161001d906100e8565b604051809103906000f080158015610039573d6000803e3d6000fd5b50600160006101000a81548173ffffffffffffffffffffffffffffffffffffffff021916908373ffffffffffffffffffffffffffffffffffffffff160217905550604051610086906100f5565b604051809103906000f0801580156100a2573d6000803e3d6000fd5b50600260006101000a81548173ffffffffffffffffffffffffffffffffffffffff021916908373ffffffffffffffffffffffffffffffffffffffff160217905550610102565b6102e78061050883390190565b610263806107ef83390190565b6103f7806101116000396000f3fe608060405234801561001057600080fd5b50600436106100415760003560e01c80631003e2d2146100465780636537214714610062578063cd40318014610080575b600080fd5b610060600480360381019061005b9190610275565b61009c565b005b61006a610168565b60405161007791906102b1565b60405180910390f35b61009a60048036038101906100959190610275565b61016e565b005b600063b9d92de860e01b9050600080600260009054906101000a900473ffffffffffffffffffffffffffffffffffffffff1673ffffffffffffffffffffffffffffffffffffffff1683856040516020016100f7929190610307565b60405160208183030381529060405260405161011391906103aa565b600060405180830381855af49150503d806000811461014e576040519150601f19603f3d011682016040523d82523d6000602084013e610153565b606091505b50915091508161016257600080fd5b50505050565b60005481565b600063b9d92de860e01b9050600080600160009054906101000a900473ffffffffffffffffffffffffffffffffffffffff1673ffffffffffffffffffffffffffffffffffffffff1683856040516020016101c9929190610307565b6040516020818303038152906040526040516101e591906103aa565b600060405180830381855af49150503d8060008114610220576040519150601f19603f3d011682016040523d82523d6000602084013e610225565b606091505b50915091508161023457600080fd5b50505050565b600080fd5b6000819050919050565b6102528161023f565b811461025d57600080fd5b50565b60008135905061026f81610249565b92915050565b60006020828403121561028b5761028a61023a565b5b600061029984828501610260565b91505092915050565b6102ab8161023f565b82525050565b60006020820190506102c660008301846102a2565b92915050565b60007fffffffff0000000000000000000000000000000000000000000000000000000082169050919050565b610301816102cc565b82525050565b600060408201905061031c60008301856102f8565b61032960208301846102a2565b9392505050565b600081519050919050565b600081905092915050565b60005b83811015610364578082015181840152602081019050610349565b83811115610373576000848401525b50505050565b600061038482610330565b61038e818561033b565b935061039e818560208601610346565b80840191505092915050565b60006103b68284610379565b91508190509291505056fea2646970667358221220e77e806a355c40472d3e64fe55027dd12f106de57247e31a3639a5302feab89464736f6c634300080a0033608060405234801561001057600080fd5b506102c7806100206000396000f3fe608060405234801561001057600080fd5b50600436106100365760003560e01c8063653721471461003b578063b9d92de814610059575b600080fd5b610043610089565b6040516100509190610100565b60405180910390f35b610073600480360381019061006e919061014c565b61008f565b6040516100809190610100565b60405180910390f35b60005481565b6000808214156100a557600080819055506100dd565b6000826000546100b591906101a8565b905082600054826100c69190610231565b146100d4576100d3610262565b5b80600081905550505b6000549050919050565b6000819050919050565b6100fa816100e7565b82525050565b600060208201905061011560008301846100f1565b92915050565b600080fd5b610129816100e7565b811461013457600080fd5b50565b60008135905061014681610120565b92915050565b6000602082840312156101625761016161011b565b5b600061017084828501610137565b91505092915050565b7f4e487b7100000000000000000000000000000000000000000000000000000000600052601160045260246000fd5b60006101b3826100e7565b91506101be836100e7565b9250817fffffffffffffffffffffffffffffffffffffffffffffffffffffffffffffffff04831182151516156101f7576101f6610179565b5b828202905092915050565b7f4e487b7100000000000000000000000000000000000000000000000000000000600052601260045260246000fd5b600061023c826100e7565b9150610247836100e7565b92508261025757610256610202565b5b828204905092915050565b7f4e487b7100000000000000000000000000000000000000000000000000000000600052600160045260246000fdfea2646970667358221220daadeb4df71823f1d0a6cfa0506b6c850cff87edfa4504268541eb4a634d8da364736f6c634300080a0033608060405234801561001057600080fd5b50610243806100206000396000f3fe608060405234801561001057600080fd5b50600436106100365760003560e01c8063653721471461003b578063b9d92de814610059575b600080fd5b610043610089565b60405161005091906100e0565b60405180910390f35b610073600480360381019061006e919061012c565b61008f565b60405161008091906100e0565b60405180910390f35b60005481565b600080826000546100a09190610188565b90506000548110156100b5576100b46101de565b5b80600081905550600054915050919050565b6000819050919050565b6100da816100c7565b82525050565b60006020820190506100f560008301846100d1565b92915050565b600080fd5b610109816100c7565b811461011457600080fd5b50565b60008135905061012681610100565b92915050565b600060208284031215610142576101416100fb565b5b600061015084828501610117565b91505092915050565b7f4e487b7100000000000000000000000000000000000000000000000000000000600052601160045260246000fd5b6000610193826100c7565b915061019e836100c7565b9250827fffffffffffffffffffffffffffffffffffffffffffffffffffffffffffffffff038211156101d3576101d2610159565b5b828201905092915050565b7f4e487b7100000000000000000000000000000000000000000000000000000000600052600160045260246000fdfea2646970667358221220fb8f3fb827921bfcd862cd026736bc699679b07d0599c8e364ae449cc746aff564736f6c634300080a0033",
  "immutableReferences": {},
  "source": "// SPDX-License-Identifier: MIT\npragma solidity ^0.8.10;\n\ncontract ResultStorage\n{\n\tuint public result;\n}\n\ncontract Calculator is ResultStorage\n{\n\tProduct internal product;\n\tAddition internal addition;\n\n\tconstructor()\n\t{\n\t\tproduct=new Product();\n\t\taddition=new Addition();\n\t}\n\tfunction add(uint x) public \n\t{\n\t\tbytes4 methodID=Addition.calculate.selector;\n\t\t(bool success, bytes memory c)=address(addition).delegatecall(abi.encode(methodID,x));\n\t\trequire(success);\n\t}\n\tfunction multiple(uint x) public\n\t{\n\t\tbytes4 methodID=Product.calculate.selector;\n\t\t(bool success, bytes memory c)=address(product).delegatecall(abi.encode(methodID,x));\n\t\trequire(success);\n\t}\n}\n\ncontract Addition is ResultStorage\n{\n\tfunction calculate(uint x) public returns(uint)\n\t{\n\t\tuint temp=result+x;\n\t\tassert(temp>=result);\n\t\tresult=temp;\n\t\treturn result;\n\t}\n}\n\ncontract Product is ResultStorage\n{\n\tfunction calculate(uint x) public returns(uint)\n\t{\n\t\tif(x==0)result=0;\n\t\telse\n\t\t{\n\t\t\tuint temp=result*x;\n\t\t\tassert(temp/result==x);\n\t\t\tresult=temp;\n\t\t}\n\t\treturn result;\n\t}\n}\n\n\n",
  "sourcePath": "/home/surya/Truffle/contracts/Calculator.sol",
  "compiler": {
    "name": "solc",
    "version": "0.8.10+commit.fc410830.Emscripten.clang"
  },
  "schemaVersion": "3.4.4",
  "updatedAt": "2022-01-17T10:48:01.931Z",
  "devdoc": {
    "kind": "dev",
    "methods": {},
    "version": 1
  },
  "userdoc": {
    "kind": "user",
    "methods": {},
    "version": 1
  }
}