{
  "contractName": "PhoneBook",
  "abi": [
    {
      "inputs": [
        {
          "internalType": "string",
          "name": "_name",
          "type": "string"
        },
        {
          "internalType": "uint256",
          "name": "_phone",
          "type": "uint256"
        }
      ],
      "name": "addPeople",
      "outputs": [
        {
          "internalType": "bool",
          "name": "",
          "type": "bool"
        }
      ],
      "stateMutability": "nonpayable",
      "type": "function"
    },
    {
      "inputs": [
        {
          "internalType": "string",
          "name": "_name",
          "type": "string"
        }
      ],
      "name": "find",
      "outputs": [
        {
          "internalType": "uint256",
          "name": "",
          "type": "uint256"
        }
      ],
      "stateMutability": "nonpayable",
      "type": "function"
    }
  ],
  "bytecode": "0x608060405234801561001057600080fd5b5061044d806100206000396000f3fe608060405234801561001057600080fd5b50600436106100365760003560e01c8063795fff1d1461003b57806382b7b5001461006b575b600080fd5b61005560048036038101906100509190610281565b61009b565b60405161006291906102f8565b60405180910390f35b61008560048036038101906100809190610313565b6100ca565b604051610092919061036b565b60405180910390f35b6000816000846040516100ae9190610400565b9081526020016040518091039020819055506001905092915050565b600080826040516100db9190610400565b9081526020016040518091039020549050919050565b6000604051905090565b600080fd5b600080fd5b600080fd5b600080fd5b6000601f19601f8301169050919050565b7f4e487b7100000000000000000000000000000000000000000000000000000000600052604160045260246000fd5b6101588261010f565b810181811067ffffffffffffffff8211171561017757610176610120565b5b80604052505050565b600061018a6100f1565b9050610196828261014f565b919050565b600067ffffffffffffffff8211156101b6576101b5610120565b5b6101bf8261010f565b9050602081019050919050565b82818337600083830152505050565b60006101ee6101e98461019b565b610180565b90508281526020810184848401111561020a5761020961010a565b5b6102158482856101cc565b509392505050565b600082601f83011261023257610231610105565b5b81356102428482602086016101db565b91505092915050565b6000819050919050565b61025e8161024b565b811461026957600080fd5b50565b60008135905061027b81610255565b92915050565b60008060408385031215610298576102976100fb565b5b600083013567ffffffffffffffff8111156102b6576102b5610100565b5b6102c28582860161021d565b92505060206102d38582860161026c565b9150509250929050565b60008115159050919050565b6102f2816102dd565b82525050565b600060208201905061030d60008301846102e9565b92915050565b600060208284031215610329576103286100fb565b5b600082013567ffffffffffffffff81111561034757610346610100565b5b6103538482850161021d565b91505092915050565b6103658161024b565b82525050565b6000602082019050610380600083018461035c565b92915050565b600081519050919050565b600081905092915050565b60005b838110156103ba57808201518184015260208101905061039f565b838111156103c9576000848401525b50505050565b60006103da82610386565b6103e48185610391565b93506103f481856020860161039c565b80840191505092915050565b600061040c82846103cf565b91508190509291505056fea2646970667358221220df15cd3c206c15fe3741ea4fce39dfe88fe475b3488284611b0469ded806d25e64736f6c634300080a0033",
  "immutableReferences": {},
  "source": "//SPDX-License-Identifier:MIT\npragma solidity^0.8.10;\n\n\ncontract PhoneBook\n{\n\n\tmapping(string=>uint256) internal book;\n\t\n\tfunction addPeople(string memory _name,uint256 _phone) public returns(bool)\n\t{\n\t\tbook[_name]=_phone;\n\t\treturn true;\n\t}\n\n\tfunction find(string memory _name) public returns(uint256)\n\t{\n\t\treturn(book[_name]);\n\t}\n}\n\n\n",
  "sourcePath": "/home/surya/Truffle/contracts/PhoneBook.sol",
  "compiler": {
    "name": "solc",
    "version": "0.8.10+commit.fc410830.Emscripten.clang"
  },
  "schemaVersion": "3.4.4",
  "updatedAt": "2022-01-17T10:48:01.958Z",
  "devdoc": {
    "kind": "dev",
    "methods": {},
    "version": 1
  },
  "userdoc": {
    "kind": "user",
    "methods": {},
    "version": 1
  }
}