{
  "contractName": "Product",
  "abi": [
    {
      "inputs": [],
      "name": "result",
      "outputs": [
        {
          "internalType": "uint256",
          "name": "",
          "type": "uint256"
        }
      ],
      "stateMutability": "view",
      "type": "function"
    },
    {
      "inputs": [
        {
          "internalType": "uint256",
          "name": "x",
          "type": "uint256"
        }
      ],
      "name": "calculate",
      "outputs": [
        {
          "internalType": "uint256",
          "name": "",
          "type": "uint256"
        }
      ],
      "stateMutability": "nonpayable",
      "type": "function"
    }
  ],
  "bytecode": "0x608060405234801561001057600080fd5b506102c7806100206000396000f3fe608060405234801561001057600080fd5b50600436106100365760003560e01c8063653721471461003b578063b9d92de814610059575b600080fd5b610043610089565b6040516100509190610100565b60405180910390f35b610073600480360381019061006e919061014c565b61008f565b6040516100809190610100565b60405180910390f35b60005481565b6000808214156100a557600080819055506100dd565b6000826000546100b591906101a8565b905082600054826100c69190610231565b146100d4576100d3610262565b5b80600081905550505b6000549050919050565b6000819050919050565b6100fa816100e7565b82525050565b600060208201905061011560008301846100f1565b92915050565b600080fd5b610129816100e7565b811461013457600080fd5b50565b60008135905061014681610120565b92915050565b6000602082840312156101625761016161011b565b5b600061017084828501610137565b91505092915050565b7f4e487b7100000000000000000000000000000000000000000000000000000000600052601160045260246000fd5b60006101b3826100e7565b91506101be836100e7565b9250817fffffffffffffffffffffffffffffffffffffffffffffffffffffffffffffffff04831182151516156101f7576101f6610179565b5b828202905092915050565b7f4e487b7100000000000000000000000000000000000000000000000000000000600052601260045260246000fd5b600061023c826100e7565b9150610247836100e7565b92508261025757610256610202565b5b828204905092915050565b7f4e487b7100000000000000000000000000000000000000000000000000000000600052600160045260246000fdfea2646970667358221220daadeb4df71823f1d0a6cfa0506b6c850cff87edfa4504268541eb4a634d8da364736f6c634300080a0033",
  "immutableReferences": {},
  "source": "// SPDX-License-Identifier: MIT\npragma solidity ^0.8.10;\n\ncontract ResultStorage\n{\n\tuint public result;\n}\n\ncontract Calculator is ResultStorage\n{\n\tProduct internal product;\n\tAddition internal addition;\n\n\tconstructor()\n\t{\n\t\tproduct=new Product();\n\t\taddition=new Addition();\n\t}\n\tfunction add(uint x) public \n\t{\n\t\tbytes4 methodID=Addition.calculate.selector;\n\t\t(bool success, bytes memory c)=address(addition).delegatecall(abi.encode(methodID,x));\n\t\trequire(success);\n\t}\n\tfunction multiple(uint x) public\n\t{\n\t\tbytes4 methodID=Product.calculate.selector;\n\t\t(bool success, bytes memory c)=address(product).delegatecall(abi.encode(methodID,x));\n\t\trequire(success);\n\t}\n}\n\ncontract Addition is ResultStorage\n{\n\tfunction calculate(uint x) public returns(uint)\n\t{\n\t\tuint temp=result+x;\n\t\tassert(temp>=result);\n\t\tresult=temp;\n\t\treturn result;\n\t}\n}\n\ncontract Product is ResultStorage\n{\n\tfunction calculate(uint x) public returns(uint)\n\t{\n\t\tif(x==0)result=0;\n\t\telse\n\t\t{\n\t\t\tuint temp=result*x;\n\t\t\tassert(temp/result==x);\n\t\t\tresult=temp;\n\t\t}\n\t\treturn result;\n\t}\n}\n\n\n",
  "sourcePath": "/home/surya/Truffle/contracts/Calculator.sol",
  "compiler": {
    "name": "solc",
    "version": "0.8.10+commit.fc410830.Emscripten.clang"
  },
  "schemaVersion": "3.4.4",
  "updatedAt": "2022-01-17T10:48:01.939Z",
  "devdoc": {
    "kind": "dev",
    "methods": {},
    "version": 1
  },
  "userdoc": {
    "kind": "user",
    "methods": {},
    "version": 1
  }
}