{
  "contractName": "ResultStorage",
  "abi": [
    {
      "inputs": [
        {
          "internalType": "uint256",
          "name": "",
          "type": "uint256"
        }
      ],
      "name": "result",
      "outputs": [
        {
          "internalType": "uint256",
          "name": "",
          "type": "uint256"
        }
      ],
      "stateMutability": "view",
      "type": "function"
    }
  ],
  "bytecode": "0x608060405234801561001057600080fd5b50610134806100206000396000f3fe6080604052348015600f57600080fd5b506004361060285760003560e01c80633c59405914602d575b600080fd5b60436004803603810190603f919060b0565b6057565b604051604e919060e5565b60405180910390f35b60008181548110606657600080fd5b906000526020600020016000915090505481565b600080fd5b6000819050919050565b609081607f565b8114609a57600080fd5b50565b60008135905060aa816089565b92915050565b60006020828403121560c35760c2607a565b5b600060cf84828501609d565b91505092915050565b60df81607f565b82525050565b600060208201905060f8600083018460d8565b9291505056fea26469706673582212205c091a771ce36c14ca1b2bd5d3c685bb11f4b972f32e21b72c41930a22fbefd664736f6c634300080a0033",
  "immutableReferences": {},
  "source": "//SPDX-License-Identifier: MIT\npragma solidity^0.8.10;\n\ncontract ResultStorage\n{\n\tuint[] public result;\n}\n\ncontract Sorting is ResultStorage\n{\n\tfunction sort(uint[] calldata data) public returns(uint[] calldata)\n\t{\n\t\tquickSort(data,int(0),int(data.length-1));\n\t\tresult=data;\n\t\treturn data;\n\t}\n\n\n\tfunction quickSort(uint[] memory data,int left,int right) internal\n\t{\n\t\tint i=left;\n\t\tint j=right;\n\t\tuint pivot=data[uint((left+right)/2)];\n\t\tif(i==j)return;\n\t\twhile(i<=j)\n\t\t{\n\t\t\twhile(data[uint(i)]<pivot)i++;\n\t\t\twhile(pivot<data[uint(j)])j--;\n\t\t\tif(i<=j)\n\t\t\t{\n\t\t\t\t(data[uint(i)],data[uint(j)])=(data[uint(j)],data[uint(i)]);\n\t\t\t\ti++;\n\t\t\t\tj--;\n\t\t\t}\n\t\t}\n\t\t\n\t\tif(left<j)\n\t\t{\n\t\t\tquickSort(data,left,j);\n\t\t}\n\t\tif(right>i)\n\t\t{\n\t\t\tquickSort(data,i,right);\n\t\t}\n\t}\n}\n",
  "sourcePath": "/home/surya/Truffle/contracts/QuickSort.sol",
  "compiler": {
    "name": "solc",
    "version": "0.8.10+commit.fc410830.Emscripten.clang"
  },
  "schemaVersion": "3.4.4",
  "updatedAt": "2022-01-17T10:48:01.946Z",
  "devdoc": {
    "kind": "dev",
    "methods": {},
    "version": 1
  },
  "userdoc": {
    "kind": "user",
    "methods": {},
    "version": 1
  }
}