{
  "contractName": "Sorting",
  "abi": [
    {
      "inputs": [
        {
          "internalType": "uint256",
          "name": "",
          "type": "uint256"
        }
      ],
      "name": "result",
      "outputs": [
        {
          "internalType": "uint256",
          "name": "",
          "type": "uint256"
        }
      ],
      "stateMutability": "view",
      "type": "function"
    },
    {
      "inputs": [
        {
          "internalType": "uint256[]",
          "name": "data",
          "type": "uint256[]"
        }
      ],
      "name": "sort",
      "outputs": [
        {
          "internalType": "uint256[]",
          "name": "",
          "type": "uint256[]"
        }
      ],
      "stateMutability": "nonpayable",
      "type": "function"
    }
  ],
  "bytecode": "0x608060405234801561001057600080fd5b506107b9806100206000396000f3fe608060405234801561001057600080fd5b50600436106100365760003560e01c80633c5940591461003b5780639ec8b0261461006b575b600080fd5b6100556004803603810190610050919061037a565b61009c565b60405161006291906103b6565b60405180910390f35b61008560048036038101906100809190610436565b6100c0565b604051610093929190610504565b60405180910390f35b600081815481106100ac57600080fd5b906000526020600020016000915090505481565b36600061011f848480806020026020016040519081016040528093929190818152602001838360200280828437600081840152601f19601f82011690508083019250505050505050600060018787905061011a9190610557565b61013e565b8383600091906101309291906102d0565b508383915091509250929050565b60008290506000829050600085600285876101599190610595565b6101639190610658565b81518110610174576101736106c2565b5b602002602001015190508183141561018e575050506102cb565b5b81831361029f575b808684815181106101ab576101aa6106c2565b5b602002602001015110156101cc5782806101c4906106f1565b935050610197565b5b8582815181106101e0576101df6106c2565b5b60200260200101518110156102025781806101fa9061073a565b9250506101cd565b81831361029a5785828151811061021c5761021b6106c2565b5b6020026020010151868481518110610237576102366106c2565b5b6020026020010151878581518110610252576102516106c2565b5b6020026020010188858151811061026c5761026b6106c2565b5b60200260200101828152508281525050508280610288906106f1565b93505081806102969061073a565b9250505b61018f565b818512156102b3576102b286868461013e565b5b828413156102c7576102c686848661013e565b5b5050505b505050565b82805482825590600052602060002090810192821561030c579160200282015b8281111561030b5782358255916020019190600101906102f0565b5b509050610319919061031d565b5090565b5b8082111561033657600081600090555060010161031e565b5090565b600080fd5b600080fd5b6000819050919050565b61035781610344565b811461036257600080fd5b50565b6000813590506103748161034e565b92915050565b6000602082840312156103905761038f61033a565b5b600061039e84828501610365565b91505092915050565b6103b081610344565b82525050565b60006020820190506103cb60008301846103a7565b92915050565b600080fd5b600080fd5b600080fd5b60008083601f8401126103f6576103f56103d1565b5b8235905067ffffffffffffffff811115610413576104126103d6565b5b60208301915083602082028301111561042f5761042e6103db565b5b9250929050565b6000806020838503121561044d5761044c61033a565b5b600083013567ffffffffffffffff81111561046b5761046a61033f565b5b610477858286016103e0565b92509250509250929050565b600082825260208201905092915050565b600080fd5b82818337600083830152505050565b60006104b48385610483565b93507f07ffffffffffffffffffffffffffffffffffffffffffffffffffffffffffffff8311156104e7576104e6610494565b5b6020830292506104f8838584610499565b82840190509392505050565b6000602082019050818103600083015261051f8184866104a8565b90509392505050565b7f4e487b7100000000000000000000000000000000000000000000000000000000600052601160045260246000fd5b600061056282610344565b915061056d83610344565b9250828210156105805761057f610528565b5b828203905092915050565b6000819050919050565b60006105a08261058b565b91506105ab8361058b565b9250817f7fffffffffffffffffffffffffffffffffffffffffffffffffffffffffffffff038313600083121516156105e6576105e5610528565b5b817f800000000000000000000000000000000000000000000000000000000000000003831260008312161561061e5761061d610528565b5b828201905092915050565b7f4e487b7100000000000000000000000000000000000000000000000000000000600052601260045260246000fd5b60006106638261058b565b915061066e8361058b565b92508261067e5761067d610629565b5b600160000383147f8000000000000000000000000000000000000000000000000000000000000000831416156106b7576106b6610528565b5b828205905092915050565b7f4e487b7100000000000000000000000000000000000000000000000000000000600052603260045260246000fd5b60006106fc8261058b565b91507f7fffffffffffffffffffffffffffffffffffffffffffffffffffffffffffffff82141561072f5761072e610528565b5b600182019050919050565b60006107458261058b565b91507f800000000000000000000000000000000000000000000000000000000000000082141561077857610777610528565b5b60018203905091905056fea264697066735822122017bf3c060e498aaa94b9913b0284465bc82db14e3dc2f9d6d7110ab775fbd77364736f6c634300080a0033",
  "immutableReferences": {},
  "source": "//SPDX-License-Identifier: MIT\npragma solidity^0.8.10;\n\ncontract ResultStorage\n{\n\tuint[] public result;\n}\n\ncontract Sorting is ResultStorage\n{\n\tfunction sort(uint[] calldata data) public returns(uint[] calldata)\n\t{\n\t\tquickSort(data,int(0),int(data.length-1));\n\t\tresult=data;\n\t\treturn data;\n\t}\n\n\n\tfunction quickSort(uint[] memory data,int left,int right) internal\n\t{\n\t\tint i=left;\n\t\tint j=right;\n\t\tuint pivot=data[uint((left+right)/2)];\n\t\tif(i==j)return;\n\t\twhile(i<=j)\n\t\t{\n\t\t\twhile(data[uint(i)]<pivot)i++;\n\t\t\twhile(pivot<data[uint(j)])j--;\n\t\t\tif(i<=j)\n\t\t\t{\n\t\t\t\t(data[uint(i)],data[uint(j)])=(data[uint(j)],data[uint(i)]);\n\t\t\t\ti++;\n\t\t\t\tj--;\n\t\t\t}\n\t\t}\n\t\t\n\t\tif(left<j)\n\t\t{\n\t\t\tquickSort(data,left,j);\n\t\t}\n\t\tif(right>i)\n\t\t{\n\t\t\tquickSort(data,i,right);\n\t\t}\n\t}\n}\n",
  "sourcePath": "/home/surya/Truffle/contracts/QuickSort.sol",
  "compiler": {
    "name": "solc",
    "version": "0.8.10+commit.fc410830.Emscripten.clang"
  },
  "schemaVersion": "3.4.4",
  "updatedAt": "2022-01-17T10:48:01.964Z",
  "devdoc": {
    "kind": "dev",
    "methods": {},
    "version": 1
  },
  "userdoc": {
    "kind": "user",
    "methods": {},
    "version": 1
  }
}